{
  "transactions": [
    {
      "hash": "0x51c656436cf4da9718c6aa1050dbef7735b80b0e6d5945df19b374ba27a59487",
      "transactionType": "CALL",
      "contractName": null,
      "contractAddress": "0xdc4ff3e0486b0daa5fac309fe441e75578a62156",
      "function": "safeMint(address,string,string,string,string,string,string)",
      "arguments": [
        "0x77f3650A6B8AeBa9A72b546749D3Da0E4518C6e8",
        "Grybto",
        "Twitter",
        "French",
        "11/05/1990",
        "Courbevoie",
        "2m00"
      ],
      "transaction": {
        "from": "0x77f3650a6b8aeba9a72b546749d3da0e4518c6e8",
        "to": "0xdc4ff3e0486b0daa5fac309fe441e75578a62156",
        "gas": "0x5cfb0",
        "value": "0x0",
        "input": "0xa4f531ed00000000000000000000000077f3650a6b8aeba9a72b546749d3da0e4518c6e800000000000000000000000000000000000000000000000000000000000000e00000000000000000000000000000000000000000000000000000000000000120000000000000000000000000000000000000000000000000000000000000016000000000000000000000000000000000000000000000000000000000000001a000000000000000000000000000000000000000000000000000000000000001e00000000000000000000000000000000000000000000000000000000000000220000000000000000000000000000000000000000000000000000000000000000647727962746f00000000000000000000000000000000000000000000000000000000000000000000000000000000000000000000000000000000000000000007547769747465720000000000000000000000000000000000000000000000000000000000000000000000000000000000000000000000000000000000000000064672656e63680000000000000000000000000000000000000000000000000000000000000000000000000000000000000000000000000000000000000000000a31312f30352f3139393000000000000000000000000000000000000000000000000000000000000000000000000000000000000000000000000000000000000a436f75726265766f6965000000000000000000000000000000000000000000000000000000000000000000000000000000000000000000000000000000000004326d303000000000000000000000000000000000000000000000000000000000",
        "nonce": "0xa2",
        "chainId": "0xaa36a7"
      },
      "additionalContracts": [],
      "isFixedGasLimit": false
    }
  ],
  "receipts": [
    {
      "status": "0x1",
      "cumulativeGasUsed": "0x8b1752",
      "logs": [
        {
          "address": "0xdc4ff3e0486b0daa5fac309fe441e75578a62156",
          "topics": [
            "0xddf252ad1be2c89b69c2b068fc378daa952ba7f163c4a11628f55a4df523b3ef",
            "0x0000000000000000000000000000000000000000000000000000000000000000",
            "0x00000000000000000000000077f3650a6b8aeba9a72b546749d3da0e4518c6e8",
            "0x0000000000000000000000000000000000000000000000000000000000000001"
          ],
          "data": "0x",
          "blockHash": "0x74e9fd817ded8112892b20d2c93c98e7286b5fb2cbdeb4c0e341e369621c7276",
          "blockNumber": "0x8bdb52",
          "blockTimestamp": "0x68bfd700",
          "transactionHash": "0x51c656436cf4da9718c6aa1050dbef7735b80b0e6d5945df19b374ba27a59487",
          "transactionIndex": "0x34",
          "logIndex": "0x36",
          "removed": false
        }
      ],
      "logsBloom": "0x00000000000000000000000000000000000000000000000000000000000000040000000000000000000000000000000000100000000000000000000000040000000000000000000000000008000000000000000000440000000000000000000000000000020080000000000000000800000000000000000000000010000000000000000000000001000000000000000000000000000000000000020000000000000000000000000000000000000000000000000000000000000000000000000000000002000000000000000000000000000000000000000000000000000060000000000000000000000000000000000000000000000000000000000000000000",
      "type": "0x2",
      "transactionHash": "0x51c656436cf4da9718c6aa1050dbef7735b80b0e6d5945df19b374ba27a59487",
      "transactionIndex": "0x34",
      "blockHash": "0x74e9fd817ded8112892b20d2c93c98e7286b5fb2cbdeb4c0e341e369621c7276",
      "blockNumber": "0x8bdb52",
      "gasUsed": "0x3f939",
      "effectiveGasPrice": "0x9928179",
      "from": "0x77f3650a6b8aeba9a72b546749d3da0e4518c6e8",
      "to": "0xdc4ff3e0486b0daa5fac309fe441e75578a62156",
      "contractAddress": null
    }
  ],
  "libraries": [],
  "pending": [],
  "returns": {},
  "timestamp": 1757402881173,
  "chain": 11155111,
  "commit": "c496527"
}